:0400000080311C2807
:100008007E1480312000911C0A280B28192803101F
:1000180022008E1F031403181228152822008E1799
:10002800172822008E1320009A0191107E100900D3
:1000380080311E28F001F1017E10200080313F2818
:100048008B1721008E162C0093019317131720008D
:100058009A01FF309B0002302C0092004030910042
:1000680020001C1591102100911420009C141C14D0
:1000780021008E12080080316B20803180315E2093
:10008800803180315120803180312420803180318D
:10009800722080314E2880311C282100951295113C
:1000A8001515951415140B178B178B160B112000AB
:1000B8009501080023008C018D018E012200910119
:1000C80093019201940121000E128E130800210061
:0E00D8009916191699151915991408000800A3
:020000040001F9
:08000000FF3FFF3FFF3FFF3F00
:04000E00E43FFF3F8D
:00000001FF
